:10063300044A00000000044E0000000004460000CD
:020643000000B5
:1006E100C2937F007E007D007C002092FDE4FBD25E
:1006F100937801120388C29330920DEF2401FFE435
:100701003EFEE43DFDE43CFC0BBB18E3D293ED64FB
:0407110080FDC29312
:0107150022C1
:0205A300AA07A5
:1005A500E4F563F562F561F560A902EAD3940040CC
:1005B5001A1206E1E5632FF563E5623EF562E56132
:1005C5003DF561E5603CF5601A80E0AF01AB07E4FD
:1005D500FAF9F8AF63AE62AD61AC601202C18F4D3E
:0605E5008E4C8D4B8C4A88
:0105EB0022ED
:100558001206E1C3EF954DF567EE954CF566ED95FE
:100568004BF565EC954AF564E4FFFEFDFCAB67AA24
:1005780066A965A864C31203775009E4F567F566B0
:10058800F565F564AF67AE66AD65AC64E412019BD2
:0A059800E4FBFA797A78451200FEC0
:0105A2002236
:1007FE007580FFC2B5D2B6D2B47F057E001207C394
:08080E00E58020E7FBC2B422E3
:1007E300C2B5C2B6C2B48F807F057E001207C3D2E2
:0B07F300B47F057E001207C3C2B422D1
:10082E00D2B5C2B6C2B48F807F03120816D2B47F7F
:07083E0003120816C2B422E8
:1006AA007F03120816D2B77F301207E37F057E0058
:1006BA001207C37F0C1207E37F057E001207C37F70
:1006CA00011207E37F057E001207C37F061207E3C4
:0706DA007F057E000207C34B
:10050B008D528B538A548955EF1460101460131459
:10051B0060162403701AE55224808010E552249053
:10052B00800AE55224888004E5522498FF1207E3E1
:10053B00AB53AA54A95512025AFF601012082E741D
:0D054B00012555F555E43554F55480E422A2
:10084500758911758CEEE4F58AD2AFD2A9D2ABD2F7
:020855008C22F3
:060773008B5A8A5B895CD1
:10077900E4FFAB5DAA5EA95F12025AFEAB5A055CA3
:10078900E55CAA5B7002055B14F9EE1202730FBFF8
:0207990005E079
:01079B00223B
:1007490057656C636F6D6520546F20557365210083
:1007590056616C75653A00B3ACB3F6C1BFB3CC0052
:0A0769002020202020202020200066
:100645000D1C427920585A4C2026204C4C58000B42
:10065500113031323334353637383900043500003E
:0B0665000190042D45354000014100CC
:0808570012071612067180FB66
:100671001206E18F2C8E2B8D2A8C297BFF7A07792C
:1006810069E4FD7F0212050BAF2CAE2BAD2AAC291C
:1006910012049BAF45AE44AD43AC42120427E4FDC6
:0906A1007F0212050BE4FEFF22AA
:100716007F0A7E001207C31206AA7BFF7A07794971
:10072600E4FDFF12050B7BFF7A077959E4FD7F0193
:1007360012050B7B007A00791CE4FD7F0312050B82
:030746000205ECBD
:10081600E4FDFCEFFBC3ED9B7480F86C9850080078
:070826000DBD00010C80EC88
:01082D0022A8
:1007C300E4FBFAC3EB9FEA9E5015E4FCFD0DBD006C
:0F07D300010CED64644C70F50BBB00010A80E46F
:0107E20022F4
:080427008F558E548D538C5249
:10042F0075560075570075583974072558F558E4F7
:10043F003557F557AB56FAA958E4120273E47B0A05
:10044F00FAF9F8AF55AE54AD53AC521202C1741154
:10045F002BF8E6FFAB56E55815587002155714F9EF
:10046F00AA57EF120273AF55AE54AD53AC52E47BA3
:10047F000AFAF9F81202C18F558E548D538C52EC33
:0B048F004D4E4F70B8AB56AA57A9584D
:01049A00223F
:10049B008F558E548D538C52C3EF9534FFEE95339D
:1004AB00FEED9532FDEC9531FC12079CAB38AA376B
:1004BB00A936A835D3120377400AE4F545F544F580
:1004CB0043F54222C3E5559534FFE5549533FEE5DC
:1004DB00539532FDE5529531FC12079CE412019BBA
:1004EB00AB30AA2FA92EA82D1200FEE4FBFAF97847
:1004FB003F12000A1201D98F458E448D438C422244
:10079C008F598E588D578C56E4FFFEFDFCAB59AA31
:1007AC0058A957A856D3120361AF59AE58AD57ACE0
:0707BC005650030203532213
:1005EC00E4F552F556F555F554F553F5521206E16E
:1005FC00E5562FF556E5553EF555E5543DF554E5D4
:10060C00533CF5530552E552C3940540E0E47B0599
:10061C00FAF9F8AF56AE55AD54AC531202C18F3443
:06062C008E338D328C318B
:0106320022A5
:10000300020245E86480F8E933E83360110460F0E4
:10001300ED33EC337009E8FCE9FDEAFEEBFF220463
:1000230060DED3EB9FEA9EE99DE8C2E78CF0C2F75E
:1000330095F0400CE8CCF8E9CDF9EACEFAEBCFFB2A
:1000430012021085D0F05804700320D5B3E8047071
:10005300075002B2D502024F92D5EC0460F7E4CC0C
:10006300C0E0C398F8603B94186008400DD0E0FBF3
:10007300020227E4FBFAC9FC8028E830E406E4C95D
:10008300FBE4CAFCE830E305E4C9CACBFCE8540747
:100093006010F8C3E913F9EA13FAEB13FBEC13FC52
:1000A300D8F130F52FC3E49CFCEF9BFFEE9AFEEDF5
:1000B30099FDD0E0FBEF4E4D4C701222DB030202A0
:1000C3004CEC2CFCEF33FFEE33FEED33FDED30E76C
:1000D300EB020227EF2BFFEE3AFEED39FDD0E0FBFA
:1000E30050130BBB000302024FED13FDEE13FEEFA3
:0800F30013FFEC13FC020227CD
:1000FB0002024FEC5D046005E859047003020245EF
:10010B00120210580460F6EC4860F2EC7004FDFE2D
:10011B00FF22C860DB2481C85009C39860025006D7
:10012B0002024C9850CAF582E9294B4A7005AB8202
:10013B0002023B75F0007C1A7880C3EF9BEE9AEDC0
:10014B0099400DC3EF9BFFEE9AFEED99FDE842F04F
:10015B00DC23ACF0D0E0FFD0E0FED0E0FDAB8220A2
:10016B00E7101BEB60BAEC2CFCEF33FFEE33FEED2C
:10017B0033FD020227E803F830E705C0F075F00005
:10018B00EF2FFFEE33FEED33FD40B830E7C280AA10
:10019B0075F020800E75F010800575F0087D007EDF
:1001AB00007F003392D530D503120353EC3340104C
:1001BB00EF33FFEE33FEED33FDEC33FCD5F0ED22E8
:0E01CB00E5F0247EA2D513CC92E7CDCEFF2224
:1001D900EDD2E7CD33EC3392D524814006E4FFFE1E
:1001E900FDFC22FCE4CFCECDCC24E0501174FF807D
:1001F900EDC3CC13CCCD13CDCE13CECF13CF04701A
:07020900F030D5DE020353C3
:10021000E9D2E7C933E833F892D5EDD2E7CD33EC34
:0702200033FC5002B2D522AD
:10022700EC30E7100FBF000C0EBE00080DBD000438
:100237000BEB6014A2D5EB13FCED92E7FD2274FFE4
:10024700FCFDFEFF22E480F8A2D574FF13FC7D803D
:03025700E480EF51
:0300000002039B5D
:0C039B00787FE4F6D8FD7581670203E26C
:10025A00BB010689828A83E0225002E722BBFE02A2
:09026A00E32289828A83E49322D5
:10027300BB010689828A83F0225002F722BBFE016A
:02028300F32264
:1002850075F008758200EF2FFFEE33FECD33CDCC30
:1002950033CCC58233C5829BED9AEC99E5829840B3
:1002A5000CF582EE9BFEED9AFDEC99FC0FD5F0D690
:1002B500E4CEFBE4CDFAE4CCF9A88222B800C1B9BA
:1002C5000059BA002DEC8BF084CFCECDFCE5F0CBF8
:1002D500F97818EF2FFFEE33FEED33FDEC33FCEB31
:1002E50033FB10D703994004EB99FB0FD8E5E4F9EC
:1002F500FA227818EF2FFFEE33FEED33FDEC33FCD9
:10030500C933C910D7059BE99A4007EC9BFCE99ACC
:10031500F90FD8E0E4C9FAE4CCFB2275F010EF2F11
:10032500FFEE33FEED33FDCC33CCC833C810D70711
:100335009BEC9AE899400AED9BFDEC9AFCE899F84C
:0E0345000FD5F0DAE4CDFBE4CCFAE4C8F922DF
:0E035300C3E49FFFE49EFEE49DFDE49CFC22BB
:10036100EB9FF5F0EA9E42F0E99D42F0EC6480C813
:0603710064809845F022B3
:10037700EB9FF5F0EA9E42F0E99D42F0E89C45F0DC
:010387002253
:10038800E8600FEFC333FFEE33FEED33FDEC33FCD3
:03039800D8F12277
:1003A700020857E493A3F8E493A34003F68001F20D
:1003B70008DFF48029E493A3F85407240CC8C33357
:1003C700C4540F4420C8834004F456800146F6DF26
:1003D700E4800B0102040810204080900633E47E7D
:1003E700019360BCA3FF543F30E509541FFEE4931B
:1003F700A360010ECF54C025E060A840B8E493A3E2
:10040700FAE493A3F8E493A3C8C582C8CAC583CA0C
:10041700F0A3C8C582C8CAC583CADFE9DEE780BEC4
:010670000089
:00000001FF
