:100BE900044900000000044D000000000445000015
:020BF9000000FA
:100B1100C2937F007E007D007C002092FDE4FBD229
:100B21009378011204FBC29330920DEF2401FFE48C
:100B31003EFEE43DFDE43CFC0BBB18E3D293ED64C7
:040B410080FDC293DE
:010B4500228D
:100C7A007580FFC2B5D2B6D2B47F057E00120C09C8
:080C8A00E58020E7FBC2B42263
:100BC8008F59120C7AC2B5C2B6C2B48559807F0556
:100BD8007E00120C09D2B47F057E00120C09C2B443
:010BE80022EA
:100CAA00D2B5C2B6C2B48F807F03120C92D2B47F7F
:070CBA0003120C92C2B422E8
:100C45007F03120C92D2B77F30120BC87F0C120BA8
:0B0C5500C87F01120BC87F06020BC80D
:100921008D558B568A578958EF1460101460131433
:1009310060162403701AE55524808010E555249033
:10094100800AE55524888004E5552498FF120BC8D8
:10095100AB56AA57A9581203CD601F7F05120C92FE
:10096100AB56AA57A9581203CDFF120CAA74012540
:0B09710058F558E43557F55780D622A2
:100B4600EF14600E14600F146010240370117F8080
:100B5600800A7F9080067F8880027F98120BC8E407
:100B6600F5557F20120CAA0555E555C3941040F2A1
:010B7600225C
:1009D20075B0FF20A00D7F057E00120C0920A03308
:1009E2007F012220A10D7F057E00120C0920A12388
:1009F2007F022220A20D7F057E00120C0920A21385
:100A02007F032220A30D7F057E00120C0920A30381
:060A12007F04227F002298
:1007CD0043757272656E743A0057656C636F6D6533
:1007DD0020546F205573652100436F696E7320435C
:1007ED006F756E743A00202020202059695975616B
:1007FD006E0020202020205975616E0020202020C1
:10080D002057754A69616F00202020202059694AC0
:10081D0069616F0020202020204A69616F005661B8
:10082D006C75653A0020202020200050726573738E
:0B083D00204120427574746F6E3A0079
:0D0BFB000B083031323334353637383900CD
:06052600120B7775A0FF27
:10052C001209D27551008F52E55264014551600C8D
:10053C00E51364017044E5524551703EE5136401C6
:10054C006033120C457BFF7A0779F3E4FD7F0112CF
:10055C00092175190075185075172A751645E4F59B
:10056C0025F52475238075223F7BFF7A0779FFFDE3
:10057C007F03120921751301C127E552640245510D
:10058C00600CE51364027043E5524551703DE51370
:10059C0064026032120C457BFF7A087909E4FD7F16
:1005AC00011209217519007518807517D475164438
:1005BC00E4F525F524F52375223F7BFF7A08792194
:1005CC00FD7F031209217513028050E55264034527
:1005DC0051600CE51364037047E55245517041E5D9
:1005EC001364036033120C457BFF7A087915E4FD24
:1005FC007F01120921E4F519F5187517B475164425
:10060C007525CD7524CC7523CC75223D7BFF7A08DE
:10061C007921FD7F03120921751303120658A12CB1
:10062C00E552640445516010E51364046002A12C8A
:10063C00E55245516002A12CE51364046006120CCE
:0A064C0045120A187513041206582F
:02065600A12CD5
:10065800852E53852F54E51364047002E1167BFF41
:100668007A0779E6E4FDFF1209217BFF7A08792BE6
:10067800E4FD7F02120921120BA0120B118F1D8EAF
:100688001C8D1B8C1A120C60120A9AAB07AA06A9B9
:1006980005A804C3E51D9BFFE51C9AFEE51B99FD13
:1006A800E51A98FC120AEAE47B64FAF9F8C3120422
:1006B800EA5006120C29020CC1AF1DAE1CAD1BACD2
:1006C8001A12097C120A59E554652F7004E553651E
:1006D8002E60657BFF7A087932E4FD7F01120921DB
:1006E800AE2EAF2FE4FCFD120848E4FD7F0112098D
:1006F800217BFF7A087932E4FD7F03120921AE14C9
:10070800AF15E4FCFD120848E4FD7F0380277BFF5A
:100718007A0779CDE4FDFF120921120BA0120B1103
:10072800120C607F01120B46120A9A120AD912089B
:0807380048E4FD7F01120921D4
:010740002296
:100B77007F0A7E00120C09120C457BFF7A0779D693
:100B8700E4FDFF1209217BFF7A087938E4FD7F0134
:090B9700120921120CC1020A1816
:100C9200E4FDFCEFFBC3ED9B7480F86C98500800F8
:070CA2000DBD00010C80EC08
:010CA9002228
:100C0900E4FBFAC3EB9FEA9E5015E4FCFD0DBD0021
:0F0C1900010CED64644C70F50BBB00010A80E424
:010C280022A9
:080848008F588E578D568C5518
:10085000755900755A00755B267407255BF55BE4D6
:10086000355AF55AAB59FAA95BE41203E6E47B0A60
:10087000FAF9F8AF58AE57AD56AC551204347408B7
:100880002BF8E6FFAB59E55B155B7002155A14F9BE
:10089000AA5AEF1203E6AF58AE57AD56AC55E47BFB
:1008A0000AFAF9F81204348F588E578D568C55EC8D
:0B08B0004D4E4F70B8AB59AA5AA95B1F
:0108BB00221A
:10097C008F588E578D568C55120AD9E47BE87A0322
:10098C00F9F8D31204EA4006E4F52EF52F22C3E55C
:10099C00589521FFE5579520FEE556951FFDE55529
:1009AC00951EFC120AEAE412030EAB19AA18A91739
:1009BC00A816120204E4FBFAF9783F12000A12039B
:0609CC004C8E2E8F2F223D
:100AD900C3EF9521FFEE9520FEED951FFDEC951EC8
:010AE900FC10
:100AEA008F5C8E5B8D5A8C59E4FFFEFDFCAB5CAAD1
:100AFA005BA95AA859D31204D4AF5CAE5BAD5AAC09
:070B0A005950030204C6224A
:100A18007F037E001208BC8F218E208D1F8C1E1232
:100A28000A9AAB07AA06A905A804C3E5219BFFE516
:100A3800209AFEE51F99FDE51E98FC120AEAE47B60
:100A480064FAF9F8C31204EA5006120CC1120A1823
:010A5800227B
:0408BC008E538F5474
:1008C000E4F555F559F558F557F556F555C3E55581
:1008D0009554E5536480F8748098501B120B11E511
:1008E000592FF559E5583EF558E5573DF557E5566A
:1008F0003CF556055580D6AF59AE58AD57AC56C0ED
:1009000006C007AE53AF54AB07AA06EA3395E0F929
:10091000F8D007D0061204348F598E588D578C5654
:0109200022B4
:100A5900E4FFFE7D807C3FAB25AA24A923A82212AE
:100A690002A16026AC2EAD2FE4120313AB25AA24F4
:100A7900A923A8221200FB7BCD7ACC79CC783D1230
:100A8900020412034C8E148F1522852E14852F15FE
:010A9900223A
:100C6000E544D394024003754402AB440544EB25AC
:0A0C7000E025E02438F812051A22EE
:100BA000E5446023853F3B853E3A853D39853C38A9
:100BB00085433F85423E85413D85403CE4F543F514
:080BC00042F541F54015442205
:100A9A00E4FBF558F557F556F555EB25E025E02426
:100AAA0038F812050EE5582FF558E5573EF557E583
:100ABA00563DF556E5553CF5550BBB03DDE47B0386
:0E0ACA00FAF9F8AF58AE57AD56AC55120434D9
:010AD80022FB
:100CC100120C29E4F555120B11120C600555E5556E
:050CD100C3940340F193
:010CD60022FB
:100C2900E4F53BF53AF539F538F53FF53EF53DF58F
:0C0C39003CF543F542F541F540F544223E
:100003000203B8E86480F8E933E83360110460F070
:10001300ED33EC337009E8FCE9FDEAFEEBFF220463
:1000230060DED3EB9FEA9EE99DE8C2E78CF0C2F75E
:1000330095F0400CE8CCF8E9CDF9EACEFAEBCFFB2A
:1000430012038385D0F05804700320D5B3E80470FD
:10005300075002B2D50203C292D5EC0460F7E4CC98
:10006300C0E0C398F8603B94186008400DD0E0FBF3
:1000730002039AE4FBFAC9FC8028E830E406E4C9E9
:10008300FBE4CAFCE830E305E4C9CACBFCE8540747
:100093006010F8C3E913F9EA13FAEB13FBEC13FC52
:1000A300D8F130F52FC3E49CFCEF9BFFEE9AFEEDF5
:1000B30099FDD0E0FBEF4E4D4C701222DB0302039F
:1000C300BFEC2CFCEF33FFEE33FEED33FDED30E7F9
:1000D300EB02039AEF2BFFEE3AFEED39FDD0E0FB86
:1000E30050130BBB00030203C2ED13FDEE13FEEF2F
:0800F30013FFEC13FC02039A59
:1000FB00EC4D6011E8497017ED33EC3304600DE4FF
:10010B00FCFFFEFD22E933E8330470F80203B8125A
:10011B00038358046009E4CC24815006285009025B
:10012B0003C22840030203BFC0E0EB4A7044B9800E
:10013B0006D0E0FB0203AEEF4E701CBD8008EBFF58
:10014B00EAFEE9FD80EBE98DF0A4FEE5F00201E4A7
:10015B00E9CDF9EAFEEBFFEF89F0A4FCE5F0CE89DF
:10016B00F0A42EFFE435F0CD89F0A42DFEE435F09C
:10017B008067EF4E7005BD80D780C3EF8BF0A4ACCA
:10018B00F0EE8BF0A42CFCE435F0F8EF8AF0A42C05
:10019B00E5F038FCE433CB8DF0A42CFCE5F03BF818
:1001AB00EE8AF0A42CFCE5F038F8E433CF89F0A408
:1001BB002CFCE5F038CF3400CE89F0A42FFFE5F00E
:1001CB003EFEE433C98DF0A42EFEE5F039CD8AF066
:1001DB00A42FFFE5F03EFEE43DFD33D0E0FB5007DE
:1001EB000BBB000F0203C2EC2CFCEF33FFEE33FE14
:0601FB00ED33FD02039A42
:100201000203C2EC5D046005E8590470030203B8FF
:10021100120383580460F6EC4860F2EC7004FDFEB2
:10022100FF22C860DB2481C85009C39860025006D0
:100231000203BF9850CAF582E9294B4A7005AB8287
:100241000203AE75F0007C1A7880C3EF9BEE9AED45
:1002510099400DC3EF9BFFEE9AFEED99FDE842F048
:10026100DC23ACF0D0E0FFD0E0FED0E0FDAB82209B
:10027100E7101BEB60BAEC2CFCEF33FFEE33FEED25
:1002810033FD02039AE803F830E705C0F075F0008A
:10029100EF2FFFEE33FEED33FD40B830E7C280AA09
:1002A10074F8CC6480CCC86480C8F582046043C310
:1002B100EB9FF5F0EA9E42F0E99D42F0E89C45F0A3
:1002C10060305018E5825FFFE582F42B5582FB50C8
:1002D100210ABA001D09B90019088016E5825BFBE5
:1002E100E582F42F5582FF50090EBE00050DBD00B9
:1002F100010CC3EB9FF5F0EA9E42F0E99D42F0E864
:0D0301009C45F06007CC4820E701B3EC22DA
:10030E0075F020800E75F010800575F0087D007E6A
:10031E00007F003392D530D5031204C6EC33401063
:10032E00EF33FFEE33FEED33FDEC33FCD5F0ED2273
:0E033E00E5F0247EA2D513CC92E7CDCEFF22AF
:10034C00EDD2E7CD33EC3392D524814006E4FFFEA9
:10035C00FDFC22FCE4CFCECDCC24E0501174FF8008
:10036C00EDC3CC13CCCD13CDCE13CECF13CF0470A5
:07037C00F030D5DE0204C6DB
:10038300E9D2E7C933E833F892D5EDD2E7CD33ECC0
:0703930033FC5002B2D52239
:10039A00EC30E7100FBF000C0EBE00080DBD0004C4
:1003AA000BEB6014A2D5EB13FCED92E7FD2274FF70
:1003BA00FCFDFEFF22E480F8A2D574FF13FC7D80C9
:0303CA00E480EFDD
:03000000020741B3
:0C074100787FE4F6D8FD75815C02078823
:1003CD00BB010689828A83E0225002E722BBFE022E
:0903DD00E32289828A83E4932261
:1003E600BB010689828A83F0225002F722BBFE01F6
:0203F600F322F0
:1003F80075F008758200EF2FFFEE33FECD33CDCCBC
:1004080033CCC58233C5829BED9AEC99E58298403E
:100418000CF582EE9BFEED9AFDEC99FC0FD5F0D61B
:10042800E4CEFBE4CDFAE4CCF9A88222B800C1B945
:100438000059BA002DEC8BF084CFCECDFCE5F0CB83
:10044800F97818EF2FFFEE33FEED33FDEC33FCEBBC
:1004580033FB10D703994004EB99FB0FD8E5E4F977
:10046800FA227818EF2FFFEE33FEED33FDEC33FC64
:10047800C933C910D7059BE99A4007EC9BFCE99A58
:10048800F90FD8E0E4C9FAE4CCFB2275F010EF2F9D
:10049800FFEE33FEED33FDCC33CCC833C810D7079D
:1004A8009BEC9AE899400AED9BFDEC9AFCE899F8D8
:0E04B8000FD5F0DAE4CDFBE4CCFAE4C8F9226B
:0E04C600C3E49FFFE49EFEE49DFDE49CFC2247
:1004D400EB9FF5F0EA9E42F0E99D42F0EC6480C89F
:0604E40064809845F0223F
:1004EA00EB9FF5F0EA9E42F0E99D42F0E89C45F068
:0104FA0022DF
:1004FB00E8600FEFC333FFEE33FEED33FDEC33FC5F
:03050B00D8F12202
:0C050E00E6FC08E6FD08E6FE08E6FF2219
:0C051A00ECF608EDF608EEF608EFF6220D
:10074D00020526E493A3F8E493A34003F68001F297
:10075D0008DFF48029E493A3F85407240CC8C333AD
:10076D00C4540F4420C8834004F456800146F6DF7C
:10077D00E4800B0102040810204080900BE9E47E18
:10078D00019360BCA3FF543F30E509541FFEE49371
:10079D00A360010ECF54C025E060A840B8E493A338
:1007AD00FAE493A3F8E493A3C8C582C8CAC583CA63
:1007BD00F0A3C8C582C8CAC583CADFE9DEE780BE1B
:010C080000EB
:00000001FF
