:10065000045800000000045C000000000454000086
:02066000000098
:10074E00C2937F007E007D007C002092FDE4FBD2F0
:10075E00937801120388C29330920DEF2401FFE4C7
:10076E003EFEE43DFDE43CFC0BBB18E3D293ED648E
:04077E0080FDC293A5
:010782002254
:10086C007580FFC2B5D2B6D2B47F057E001207FCEC
:08087C00E58020E7FBC2B42275
:10083800C2B5C2B6C2B48F807F057E001207FCD253
:0B084800B47F057E001207FCC2B42242
:10089C00D2B5C2B6C2B48F807F03120884D2B47FA3
:0708AC0003120884C2B4220C
:100717007F03120884D2B77F301208387F057E0026
:100727001207FC7F0C1208387F057E001207FC7F3A
:10073700011208387F057E001207FC7F0612083871
:070747007F057E000207FCA4
:100603008D628B638A648965EF1460101460131420
:1006130060162403701AE56224808010E56224903A
:10062300800AE56224888004E5622498FF12083872
:10063300AB63AA64A96512025AFF601012089C7486
:0D064300012565F565E43564F56480E42269
:1007830057656C636F6D6520546F20557365210049
:1007930056616C75653A00B3ACB3F6C1BFB3CC0018
:0A07A300202020202020202020002C
:100662000D20427920585A4C2026204C4C58000B21
:10067200113031323334353637383900043900001D
:100682000190041C000003E8043145354000024596
:02069200000066
:0808D90012069812043F80FB97
:10043F008545608546611207AD12074E1208B3124B
:10044F00074E8F308E2F8D2E8C2D1206D8AB07AA0C
:10045F0006A905A804C3E5309BFFE52F9AFEE52EFC
:10046F0099FDE52D98FC1207D5AB1FAA1EA91DA853
:10047F001CC3120377500612081C020853AF30AE8C
:10048F002FAD2EAC2D120536E56165467004E56083
:10049F00654560177BFF7A0779A3E4FD7F0212069B
:0B04AF00031204BBE4FD7F02120603F1
:0104BA00221F
:100698007F0A7E001207FC1207177BFF7A0779830F
:1006A800E4FDFF1206037BFF7A077993E4FD7F01DF
:1006B8001206031208C91208531204BBE4FD7F0294
:1006C8001206037B007A007920E4FD7F030206030B
:10088400E4FDFCEFFBC3ED9B7480F86C985008000A
:070894000DBD00010C80EC1A
:01089B00223A
:1007FC00E4FBFAC3EB9FEA9E5015E4FCFD0DBD0033
:0F080C00010CED64644C70F50BBB00010A80E435
:01081B0022BA
:0704BB00AE45AF46E4FCFD75
:0804C2008F658E648D638C626E
:1004CA0075660075670075683D74072568F568E408
:1004DA003567F567AB66FAA968E4120273E47B0A2A
:1004EA00FAF9F8AF65AE64AD63AC621202C1741179
:1004FA002BF8E6FFAB66E56815687002156714F914
:10050A00AA67EF120273AF65AE64AD63AC62E47BB7
:10051A000AFAF9F81202C18F658E648D638C62EC57
:0B052A004D4E4F70B8AB66AA67A96881
:0105350022A3
:100536008F658E648D638C62C3EF9538FFEE9537B9
:10054600FEED9536FDEC9535FC1207D5AB3CAA3B86
:10055600A93AA839D31203774006E4F545F54622B1
:10056600C3E5659538FFE5649537FEE5639536FD89
:10057600E5629535FC1207D5E412019BAB34AA332C
:10058600A932A8311200FEE4FBFAF9783F12000AFC
:080596001201D98E458F4622A7
:1007D5008F698E688D678C66E4FFFEFDFCAB69AAA8
:1007E50068A967A866D3120361AF69AE68AD67AC47
:0707F50066500302035322CA
:1008C9007F057E0012059E8F388E378D368C352236
:04059E008E608F617B
:1005A200E4F562F566F565F564F563F562C3E56247
:1005B2009561E5606480F8748098501B12074EE5DF
:1005C200662FF566E5653EF565E5643DF564E56330
:1005D2003CF563056280D6AF66AE65AD64AC63C0C0
:1005E20006C007AE60AF61AB07AA06EA3395E0F931
:1005F200F8D007D0061202C18F668E658D648C63B7
:0106020022D5
:030694000153000F
:1008B300E553D39402500E0553E55325E025E02478
:0608C30047F81203A72212
:1007AD00E5536023854E4A854D49854C48854B4719
:1007BD0085524E85514D85504C854F4BE4F552F584
:0807CD0051F550F54F155322C0
:1006D800E4FBF565F564F563F562EB25E025E024B8
:1006E80047F812039BE5652FF565E5643EF564E57B
:1006F800633DF563E5623CF5620BBB03DDE47B0318
:0E070800FAF9F8AF65AE64AD63AC621202C1DF
:0107160022C0
:1008530012081CE4F56212074E1208B30562E56242
:08086300C3940340F175530238
:01086B00226A
:10081C00E4F54AF549F548F547F54EF54DF54CF537
:0C082C004BF552F551F550F54FF55322F5
:10000300020245E86480F8E933E83360110460F0E4
:10001300ED33EC337009E8FCE9FDEAFEEBFF220463
:1000230060DED3EB9FEA9EE99DE8C2E78CF0C2F75E
:1000330095F0400CE8CCF8E9CDF9EACEFAEBCFFB2A
:1000430012021085D0F05804700320D5B3E8047071
:10005300075002B2D502024F92D5EC0460F7E4CC0C
:10006300C0E0C398F8603B94186008400DD0E0FBF3
:10007300020227E4FBFAC9FC8028E830E406E4C95D
:10008300FBE4CAFCE830E305E4C9CACBFCE8540747
:100093006010F8C3E913F9EA13FAEB13FBEC13FC52
:1000A300D8F130F52FC3E49CFCEF9BFFEE9AFEEDF5
:1000B30099FDD0E0FBEF4E4D4C701222DB030202A0
:1000C3004CEC2CFCEF33FFEE33FEED33FDED30E76C
:1000D300EB020227EF2BFFEE3AFEED39FDD0E0FBFA
:1000E30050130BBB000302024FED13FDEE13FEEFA3
:0800F30013FFEC13FC020227CD
:1000FB0002024FEC5D046005E859047003020245EF
:10010B00120210580460F6EC4860F2EC7004FDFE2D
:10011B00FF22C860DB2481C85009C39860025006D7
:10012B0002024C9850CAF582E9294B4A7005AB8202
:10013B0002023B75F0007C1A7880C3EF9BEE9AEDC0
:10014B0099400DC3EF9BFFEE9AFEED99FDE842F04F
:10015B00DC23ACF0D0E0FFD0E0FED0E0FDAB8220A2
:10016B00E7101BEB60BAEC2CFCEF33FFEE33FEED2C
:10017B0033FD020227E803F830E705C0F075F00005
:10018B00EF2FFFEE33FEED33FD40B830E7C280AA10
:10019B0075F020800E75F010800575F0087D007EDF
:1001AB00007F003392D530D503120353EC3340104C
:1001BB00EF33FFEE33FEED33FDEC33FCD5F0ED22E8
:0E01CB00E5F0247EA2D513CC92E7CDCEFF2224
:1001D900EDD2E7CD33EC3392D524814006E4FFFE1E
:1001E900FDFC22FCE4CFCECDCC24E0501174FF807D
:1001F900EDC3CC13CCCD13CDCE13CECF13CF04701A
:07020900F030D5DE020353C3
:10021000E9D2E7C933E833F892D5EDD2E7CD33EC34
:0702200033FC5002B2D522AD
:10022700EC30E7100FBF000C0EBE00080DBD000438
:100237000BEB6014A2D5EB13FCED92E7FD2274FFE4
:10024700FCFDFEFF22E480F8A2D574FF13FC7D803D
:03025700E480EF51
:030000000203B345
:0C03B300787FE4F6D8FD7581690203FA3A
:10025A00BB010689828A83E0225002E722BBFE02A2
:09026A00E32289828A83E49322D5
:10027300BB010689828A83F0225002F722BBFE016A
:02028300F32264
:1002850075F008758200EF2FFFEE33FECD33CDCC30
:1002950033CCC58233C5829BED9AEC99E5829840B3
:1002A5000CF582EE9BFEED9AFDEC99FC0FD5F0D690
:1002B500E4CEFBE4CDFAE4CCF9A88222B800C1B9BA
:1002C5000059BA002DEC8BF084CFCECDFCE5F0CBF8
:1002D500F97818EF2FFFEE33FEED33FDEC33FCEB31
:1002E50033FB10D703994004EB99FB0FD8E5E4F9EC
:1002F500FA227818EF2FFFEE33FEED33FDEC33FCD9
:10030500C933C910D7059BE99A4007EC9BFCE99ACC
:10031500F90FD8E0E4C9FAE4CCFB2275F010EF2F11
:10032500FFEE33FEED33FDCC33CCC833C810D70711
:100335009BEC9AE899400AED9BFDEC9AFCE899F84C
:0E0345000FD5F0DAE4CDFBE4CCFAE4C8F922DF
:0E035300C3E49FFFE49EFEE49DFDE49CFC22BB
:10036100EB9FF5F0EA9E42F0E99D42F0EC6480C813
:0603710064809845F022B3
:10037700EB9FF5F0EA9E42F0E99D42F0E89C45F0DC
:010387002253
:10038800E8600FEFC333FFEE33FEED33FDEC33FCD3
:03039800D8F12277
:0C039B00E6FC08E6FD08E6FE08E6FF228E
:0C03A700ECF608EDF608EEF608EFF62282
:1003BF000208D9E493A3F8E493A34003F68001F273
:1003CF0008DFF48029E493A3F85407240CC8C3333F
:1003DF00C4540F4420C8834004F456800146F6DF0E
:1003EF00E4800B0102040810204080900650E47E48
:1003FF00019360BCA3FF543F30E509541FFEE49303
:10040F00A360010ECF54C025E060A840B8E493A3C9
:10041F00FAE493A3F8E493A3C8C582C8CAC583CAF4
:10042F00F0A3C8C582C8CAC583CADFE9DEE780BEAC
:010697000062
:00000001FF
