:10088900043700000000043B0000000004330000AE
:0208990000005D
:1005F200E4F547F546F545F544F548C2942093FDE8
:10060200E4F548D2947F0312085AAF47AE46AD458F
:10061200AC4478011203D88F478E468D458C44C274
:1006220094309311EF2401F547E43EF546E43DF59D
:1006320045E43CF5440548E548C3941840C5D294C6
:10064200E547F547E546F546E5456480F545E54469
:10065200F544C2947F0312085AAF47AE46AD45AC8B
:010662004453
:010663002274
:020707008F3F22
:10070900E4F543F542F541F540E53FD39400401B3C
:100719001205F2E5432FF543E5423EF542E5413D39
:10072900F541E5403CF540153F80DEE47B05FAF9EB
:10073900F8AF43AE42AD41AC401203278F3A8E3930
:040749008D388C3724
:01074D002289
:100664001205F2C3EF953AF542EE9539F541ED9551
:1006740038F540EC9537F53FE4FFFEFDFCAB42AAAC
:1006840041A940A83FC31203C75009E4F542F5410C
:10069400F540F53FAF42AE41AD40AC3FE41201A995
:1006A4007B007A5079C3784912010CE4FBFA797A19
:0506B40078451200036F
:0106B900221E
:100842007580FFC2B5D2B6D2B47F057E001208070A
:08085200E58020E7FBC2B4229F
:10082700C2B5C2B6C2B48F807F057E00120807D258
:0B083700B47F057E00120807C2B42247
:10087200D2B5C2B6C2B48F807F0312085AD2B47FF7
:070882000312085AC2B42260
:10074E007F0312085AD2B77F301208277F057E002A
:10075E001208077F0C1208277F057E001208077FFC
:10076E00011208277F057E001208077F0612082750
:07077E007F057E0002080761
:1006BA008D3F8B408A418942EF14601014601314F5
:1006CA0060162403701AE53F24808010E53F2490C9
:1006DA00800AE53F24888004E53F2498FF12082712
:1006EA00AB40AA41A942120268FF60101208727454
:0D06FA00012542F542E43541F54180E4223E
:10089F00758911758CEEE4F58AD2AFD2A9D2ABD29D
:0208AF008C2299
:0607B5008B3F8A408941E0
:1007BB00E4FFAB42AA43A944120268FEAB3F0541DA
:1007CB00E541AA407002054014F9EE1202810FBFF9
:0207DB0005E037
:0107DD0022F9
:1007DE0048656C6C6F20576F726C6400D3B2B1D2E7
:1007EE00B3C6D6D800B3ACB3F6C1BFB3CC0020208D
:0907FE00202020202020202000F2
:03089B0001220037
:06057F008B248A25892669
:10058500E4F527F528AB07AA067C007D0AAF03AE84
:10059500021202B5ED2430FF74292527F8A6077C41
:1005A500007D0AAF03AE021202B5AA06AB07052706
:1005B500D3EB9400EA6480948050CEE527D3940071
:1005C500401B74282527F8E6AB24AA25A9268528EB
:1005D500827583001202930528152780DEAB24AAB5
:0D05E50025A926852882758300E402029373
:1008B1001207857F0A120707120440EF4E60F922E2
:10044000E4F519F518F517F5161206641201E78F91
:10045000198E188D178C16E4FFFEFDFCAB19AA1837
:10046000A917A816C31203C77008750830752201B2
:1004700080627542FF7543077544FC7B007A007902
:10048000081207B5E4F522E4FFFEFDFCAB19AA183B
:10049000A917A816C31203C7603AE47B0AFAF9F851
:1004A000AF19AE18AD17AC16120327EB2430FFAE10
:1004B00022052274082EF8A607AF19AE18AD17ACA6
:1004C00016E47B0AFAF9F81203278F198E188D1794
:1004D0008C1680B37F93120827E522D39400400F37
:1004E000AF22152274082FF8E6FF12087280EAE4A2
:0304F000FEFF22EA
:10078500D2A77580FFC2A7D2A6E4F580C2A67F0ACC
:10079500FE12080712074E7BFF7A0779DEE4FDFF9C
:1007A5001206BA7BFF7A0779EAE4FD7F020206BAF0
:10085A00E4FDFCEFFBC3ED9B7480F86C9850080034
:07086A000DBD00010C80EC44
:010871002264
:10080700E4FBFAC3EB9FEA9E5015E4FCFD0DBD0027
:0F081700010CED64644C70F50BBB00010A80E42A
:0108260022AF
:10000300EC4D6011E8497017ED33EC3304600DE4F7
:10001300FCFFFEFD22E933E8330470F802025312B9
:10002300021E58046009E4CC2481500628500902BA
:10003300025D28400302025AC0E0EB4A7044B980D3
:1000430006D0E0FB020249EF4E701CBD8008EBFFB7
:10005300EAFEE9FD80EBE98DF0A4FEE5F00200EC99
:10006300E9CDF9EAFEEBFFEF89F0A4FCE5F0CE89D8
:10007300F0A42EFFE435F0CD89F0A42DFEE435F095
:100083008067EF4E7005BD80D780C3EF8BF0A4ACC3
:10009300F0EE8BF0A42CFCE435F0F8EF8AF0A42CFE
:1000A300E5F038FCE433CB8DF0A42CFCE5F03BF811
:1000B300EE8AF0A42CFCE5F038F8E433CF89F0A401
:1000C3002CFCE5F038CF3400CE89F0A42FFFE5F007
:1000D3003EFEE433C98DF0A42EFEE5F039CD8AF05F
:1000E300A42FFFE5F03EFEE43DFD33D0E0FB5007D7
:1000F3000BBB000F02025DEC2CFCEF33FFEE33FE73
:06010300ED33FD020235A0
:1001090002025DEC5D046005E859047003020253C4
:1001190012021E580460F6EC4860F2EC7004FDFE11
:10012900FF22C860DB2481C85009C39860025006C9
:1001390002025A9850CAF582E9294B4A7005AB82E6
:1001490002024975F0007C1A7880C3EF9BEE9AEDA4
:1001590099400DC3EF9BFFEE9AFEED99FDE842F041
:10016900DC23ACF0D0E0FFD0E0FED0E0FDAB822094
:10017900E7101BEB60BAEC2CFCEF33FFEE33FEED1E
:1001890033FD020235E803F830E705C0F075F000E9
:10019900EF2FFFEE33FEED33FD40B830E7C280AA02
:1001A90075F020800E75F010800575F0087D007ED1
:1001B900007F003392D530D5031203B9EC334010D8
:1001C900EF33FFEE33FEED33FDEC33FCD5F0ED22DA
:0E01D900E5F0247EA2D513CC92E7CDCEFF2216
:1001E700EDD2E7CD33EC3392D524814006E4FFFE10
:1001F700FDFC22FCE4CFCECDCC24E0501174FF806F
:10020700EDC3CC13CCCD13CDCE13CECF13CF04700B
:07021700F030D5DE0203B94F
:10021E00E9D2E7C933E833F892D5EDD2E7CD33EC26
:07022E0033FC5002B2D5229F
:10023500EC30E7100FBF000C0EBE00080DBD00042A
:100245000BEB6014A2D5EB13FCED92E7FD2274FFD6
:10025500FCFDFEFF22E480F8A2D574FF13FC7D802F
:03026500E480EF43
:030000000204F304
:0C04F300787FE4F6D8FD75814802053AD8
:10026800BB010689828A83E0225002E722BBFE0294
:09027800E32289828A83E49322C7
:10028100BB010689828A83F0225002F722BBFE015C
:02029100F32256
:10029300F8BB010DE58229F582E5833AF583E8F0A1
:1002A300225006E92582C8F622BBFE05E92582C84D
:0202B300F22235
:1002B500C2D5EC30E709B2D5E4C39DFDE49CFCEE64
:1002C50030E715B2D5E4C39FFFE49EFE1203EBC3EE
:1002D500E49DFDE49CFC80031203EB30D507C3E4E9
:0602E5009FFFE49EFE22D3
:1002EB0075F008758200EF2FFFEE33FECD33CDCCCA
:1002FB0033CCC58233C5829BED9AEC99E58298404D
:10030B000CF582EE9BFEED9AFDEC99FC0FD5F0D629
:10031B00E4CEFBE4CDFAE4CCF9A88222B800C1B953
:10032B000059BA002DEC8BF084CFCECDFCE5F0CB91
:10033B00F97818EF2FFFEE33FEED33FDEC33FCEBCA
:10034B0033FB10D703994004EB99FB0FD8E5E4F985
:10035B00FA227818EF2FFFEE33FEED33FDEC33FC72
:10036B00C933C910D7059BE99A4007EC9BFCE99A66
:10037B00F90FD8E0E4C9FAE4CCFB2275F010EF2FAB
:10038B00FFEE33FEED33FDCC33CCC833C810D707AB
:10039B009BEC9AE899400AED9BFDEC9AFCE899F8E6
:0E03AB000FD5F0DAE4CDFBE4CCFAE4C8F92279
:0E03B900C3E49FFFE49EFEE49DFDE49CFC2255
:1003C700EB9FF5F0EA9E42F0E99D42F0E89C45F08C
:0103D7002203
:1003D800E8600FEFC333FFEE33FEED33FDEC33FC83
:0303E800D8F12227
:1004FF000208B1E493A3F8E493A34003F68001F25A
:10050F0008DFF48029E493A3F85407240CC8C333FD
:10051F00C4540F4420C8834004F456800146F6DFCC
:10052F00E4800B0102040810204080900889E47ECB
:10053F00019360BCA3FF543F30E509541FFEE493C1
:10054F00A360010ECF54C025E060A840B8E493A388
:10055F00FAE493A3F8E493A3C8C582C8CAC583CAB3
:10056F00F0A3C8C582C8CAC583CADFE9DEE780BE6B
:01089E000059
:1003EB00BC000BBE0029EF8DF084FFADF022E4CCF6
:1003FB00F875F008EF2FFFEE33FEEC33FCEE9DECBF
:10040B00984005FCEE9DFE0FD5F0E9E4CEFD22ED04
:10041B00F8F5F0EE8420D21CFEADF075F008EF2F4E
:10042B00FFED33FD4007985006D5F0F222C398FD3F
:05043B000FD5F0EA22DC
:00000001FF
