:10073600041F00000000042300000000041B00004A
:020746000000B1
:1004EC00E4F52FF52EF52DF52CF530C2912090FD6D
:1004FC00E4F530D2917F0312071EAF2FAE2EAD2D37
:10050C00AC2C78011203808F2F8E2E8D2D8C2CC24B
:10051C0091309011EF2401F52FE43EF52EE43DF5DA
:10052C002DE43CF52C0530E530C3941840C5D29130
:10053C00E52FF52FE52EF52EE52D6480F52DE52C18
:10054C00F52CC2917F0312071EAF2FAE2EAD2DAC32
:01055C002C72
:01055D00227B
:020601008F2741
:10060300E4F52BF52AF529F528E527D39400401BBB
:100613001204ECE52B2FF52BE52A3EF52AE5293DBF
:10062300F529E5283CF528152780DEE47B05FAF952
:10063300F8AF2BAE2AAD29AC281202CF8F228E2120
:040643008D208C1F5B
:010647002290
:10055E001204ECC3EF9522F52AEE9521F529ED95BF
:10056E0020F528EC951FF527E4FFFEFDFCAB2AAA2B
:10057E0029A928A827C312036F5009E4F52AF529E3
:10058E00F528F527AF2AAE29AD28AC27E41201A92C
:10059E007B007A5079C3784912010CE4FBFA797A20
:0505AE00784512000376
:0105B3002225
:1006D1007580FFC2B5D2B6D2B47F057E00120689FD
:0B06E100E58020E7FB2087FDC2B4226B
:100706008F2B1206D1C2B5C2B6C2B4852B80D2B425
:080716007F0312071EC2B4228A
:10074C008F2B1206D1D2B5C2B6852B80D2B47F03C3
:06075C0012071EC2B422C8
:0F0784007F0C1207067F011207067F0602070689
:1005B4008D278B288A29892AEF146010146013145C
:1005C40060162403701AE52724808010E527249000
:1005D400800AE52724888004E5272498FF1207066B
:1005E400AB28AA29A92A120268FF601012074C74CA
:0D05F40001252AF52AE43529F52980E422A5
:10076200758911758CEEE4F58AD2AFD2A9D2ABD2DB
:020772008C22D7
:1006AE008B278A288929AB27AA28A92912026860D4
:1006BE00110529E5297002052814F974001202812A
:0306CE0080E422A3
:1006EC00E7A1ACE5B881E7A7B0E9878D00E8B6854E
:0A06FC00E587BAE9878FE7A88B00B5
:03074800011A0093
:100774001206487F0A120601120393EF4E60F92213
:10039300E4F519F518F517F51612055E1201E78F46
:1003A300198E188D178C16E47FE87E03FDFCAB19BC
:1003B300AA18A917A816C312036F400E7BFF7A066B
:1003C30079F9E4FDFF1205B48074E4FFFEFDFCAB94
:1003D30019AA18A917A816C312036F700875083055
:1003E300751A0180597B007A0079081206AEE4F58C
:1003F3001AE4FFFEFDFCAB19AA18A917A816C3122D
:10040300036F603AE47B0AFAF9F8AF19AE18AD1737
:10041300AC161202CFEB2430FFAE1A051A74082E65
:10042300F8A607AF19AE18AD17AC16E47B0AFAF9B4
:10043300F81202CF8F198E188D178C1680B37F9305
:10044300120706E51AD39400400FAF1A151A740861
:0D0453002FF8E6FF12074C80EAE4FEFF22BE
:10064800C2A6C2A77F0A7E001206891207847BFF12
:100658007A0679ECE4FDFF1205B47BFF7A0679ECA3
:10066800E4FD7F011205B47BFF7A0679ECE4FD7F97
:10067800021205B47BFF7A0679ECE4FD7F030205DC
:01068800B4BD
:10071E00E4FDFCEFFBC3ED9B7480F86C9850080071
:07072E000DBD00010C80EC81
:0107350022A1
:100689007D6E7C00E4FBFAC3EB9FEA9E5016ED1DDC
:100699008C8370011C458370F50BBB00010A7C003B
:0406A9007D6E80E3FF
:0106AD00222A
:10000300EC4D6011E8497017ED33EC3304600DE4F7
:10001300FCFFFEFD22E933E8330470F802025312B9
:10002300021E58046009E4CC2481500628500902BA
:10003300025D28400302025AC0E0EB4A7044B980D3
:1000430006D0E0FB020249EF4E701CBD8008EBFFB7
:10005300EAFEE9FD80EBE98DF0A4FEE5F00200EC99
:10006300E9CDF9EAFEEBFFEF89F0A4FCE5F0CE89D8
:10007300F0A42EFFE435F0CD89F0A42DFEE435F095
:100083008067EF4E7005BD80D780C3EF8BF0A4ACC3
:10009300F0EE8BF0A42CFCE435F0F8EF8AF0A42CFE
:1000A300E5F038FCE433CB8DF0A42CFCE5F03BF811
:1000B300EE8AF0A42CFCE5F038F8E433CF89F0A401
:1000C3002CFCE5F038CF3400CE89F0A42FFFE5F007
:1000D3003EFEE433C98DF0A42EFEE5F039CD8AF05F
:1000E300A42FFFE5F03EFEE43DFD33D0E0FB5007D7
:1000F3000BBB000F02025DEC2CFCEF33FFEE33FE73
:06010300ED33FD020235A0
:1001090002025DEC5D046005E859047003020253C4
:1001190012021E580460F6EC4860F2EC7004FDFE11
:10012900FF22C860DB2481C85009C39860025006C9
:1001390002025A9850CAF582E9294B4A7005AB82E6
:1001490002024975F0007C1A7880C3EF9BEE9AEDA4
:1001590099400DC3EF9BFFEE9AFEED99FDE842F041
:10016900DC23ACF0D0E0FFD0E0FED0E0FDAB822094
:10017900E7101BEB60BAEC2CFCEF33FFEE33FEED1E
:1001890033FD020235E803F830E705C0F075F000E9
:10019900EF2FFFEE33FEED33FD40B830E7C280AA02
:1001A90075F020800E75F010800575F0087D007ED1
:1001B900007F003392D530D503120361EC33401030
:1001C900EF33FFEE33FEED33FDEC33FCD5F0ED22DA
:0E01D900E5F0247EA2D513CC92E7CDCEFF2216
:1001E700EDD2E7CD33EC3392D524814006E4FFFE10
:1001F700FDFC22FCE4CFCECDCC24E0501174FF806F
:10020700EDC3CC13CCCD13CDCE13CECF13CF04700B
:07021700F030D5DE020361A7
:10021E00E9D2E7C933E833F892D5EDD2E7CD33EC26
:07022E0033FC5002B2D5229F
:10023500EC30E7100FBF000C0EBE00080DBD00042A
:100245000BEB6014A2D5EB13FCED92E7FD2274FFD6
:10025500FCFDFEFF22E480F8A2D574FF13FC7D802F
:03026500E480EF43
:0300000002046097
:0C046000787FE4F6D8FD7581300204A717
:10026800BB010689828A83E0225002E722BBFE0294
:09027800E32289828A83E49322C7
:10028100BB010689828A83F0225002F722BBFE015C
:02029100F32256
:1002930075F008758200EF2FFFEE33FECD33CDCC22
:1002A30033CCC58233C5829BED9AEC99E5829840A5
:1002B3000CF582EE9BFEED9AFDEC99FC0FD5F0D682
:1002C300E4CEFBE4CDFAE4CCF9A88222B800C1B9AC
:1002D3000059BA002DEC8BF084CFCECDFCE5F0CBEA
:1002E300F97818EF2FFFEE33FEED33FDEC33FCEB23
:1002F30033FB10D703994004EB99FB0FD8E5E4F9DE
:10030300FA227818EF2FFFEE33FEED33FDEC33FCCA
:10031300C933C910D7059BE99A4007EC9BFCE99ABE
:10032300F90FD8E0E4C9FAE4CCFB2275F010EF2F03
:10033300FFEE33FEED33FDCC33CCC833C810D70703
:100343009BEC9AE899400AED9BFDEC9AFCE899F83E
:0E0353000FD5F0DAE4CDFBE4CCFAE4C8F922D1
:0E036100C3E49FFFE49EFEE49DFDE49CFC22AD
:10036F00EB9FF5F0EA9E42F0E99D42F0E89C45F0E4
:01037F00225B
:10038000E8600FEFC333FFEE33FEED33FDEC33FCDB
:03039000D8F1227F
:10046C00020774E493A3F8E493A34003F68001F22B
:10047C0008DFF48029E493A3F85407240CC8C33391
:10048C00C4540F4420C8834004F456800146F6DF60
:10049C00E4800B0102040810204080900736E47EB3
:1004AC00019360BCA3FF543F30E509541FFEE49355
:1004BC00A360010ECF54C025E060A840B8E493A31C
:1004CC00FAE493A3F8E493A3C8C582C8CAC583CA47
:1004DC00F0A3C8C582C8CAC583CADFE9DEE780BEFF
:01074B0000AD
:00000001FF
