:10064A0004440000000004480000000004400000C8
:02065A0000009E
:1004EC00E4F554F553F552F551F555C2912090FDB4
:1004FC00E4F555D2917F0312074DAF54AE53AD5274
:10050C00AC5178011203808F548E538D528C51C292
:10051C0091309011EF2401F554E43EF553E43DF590
:10052C0052E43CF5510555E555C3941840C5D2919C
:10053C00E554F554E553F553E5526480F552E55115
:10054C00F551C2917F0312074DAF54AE53AD52AC6F
:01055C00514D
:01055D00227B
:020603008F4C1A
:10060500E4F550F54FF54EF54DE54CD39400401B00
:100615001204ECE5502FF550E54F3EF54FE54E3D04
:10062500F54EE54D3CF54D154C80DEE47B05FAF9BC
:10063500F8AF50AE4FAD4EAC4D1202CF8F478E4640
:040645008D458C440F
:01064900228E
:10055E001204ECC3EF9547F54FEE9546F54EED952B
:10056E0045F54DEC9544F54CE4FFFEFDFCAB4FAA72
:10057E004EA94DA84CC312036F5009E4F54FF54E2A
:10058E00F54DF54CAF4FAE4EAD4DAC4CE41201A94E
:10059E007B007A5079C3784912010CE4FBFA797A20
:0505AE00784512000376
:0105B3002225
:10071500C294D295C2967580FF7F057E0012068B26
:10072500D2967F057E0012068BE58060FCC296227C
:1006D3008F50120715C294C295C2968550807F052C
:1006E3007E0012068BD2967F057E0012068BC29681
:0106F30022E4
:1006F4008F50120715D294C295C2968550807F05FB
:100704007E0012068BD2967F057E0012068BC2965F
:0107140022C2
:0F0787007F301206D37F0C1206D37F010206D3F8
:1005B4008D4C8B4D8A4E894FEF14601014601314C8
:1005C40060162403701AE54C24808010E54C2490B6
:1005D400800AE54C24888004E54C2498FF1206D355
:1005E400AB4DAA4EA94F1202686013054FE54F7038
:0F05F40002054E14F9120268FF1206F480E2228B
:10073500758911758CEEE4F58A758DFE758BA2D2DF
:08074500AFD2A9D2ABD28C2285
:1006B0008B4C8A4D894EAB4CAA4DA94E12026860F4
:1006C00011054EE54E7002054D14F97412120281A7
:0306D00080E422A1
:10065C000D1DE7A1ACE5B881E7A7B0E9878D000DCA
:10066C002AE8B685E587BAE9878FE7A88B000B12D5
:0E067C002020202020202020202000013F00F0
:100777001207657F0A120603120393EF4E60F922F0
:10039300E4F53EF53DF53CF53B12055E1201E78FB2
:1003A3003E8E3D8D3C8C3BE47FE87E03FDFCAB3E03
:1003B300AA3DA93CA83BC312036F400E7B007A0001
:1003C300792AE4FDFF1205B48074E4FFFEFDFCAB63
:1003D3003EAA3DA93CA83BC312036F7008750830C1
:1003E300753F0180597B007A0079081206B0E4F565
:1003F3003FE4FFFEFDFCAB3EAA3DA93CA83BC31274
:10040300036F603AE47B0AFAF9F8AF3EAE3DAD3CC8
:10041300AC3B1202CFEB2430FFAE3F053F74082EF6
:10042300F8A607AF3EAE3DAD3CAC3BE47B0AFAF920
:10043300F81202CF8F3E8E3D8D3C8C3B80B37F9371
:100443001206D3E53FD39400400FAF3F153F740826
:0D0453002FF8E6FF1206F480EAE4FEFF2217
:100765001207351207877B007A00791DE4FDFF0229
:0207750005B4C9
:10074D00E4FDFCEFFBC3ED9B7480F86C9850080042
:07075D000DBD00010C80EC52
:010764002272
:10068B007D6E7C00E4FBFAC3EB9FEA9E5016ED1DDA
:10069B008C8370011C458370F50BBB00010A7C0039
:0406AB007D6E80E3FD
:0106AF002228
:10000300EC4D6011E8497017ED33EC3304600DE4F7
:10001300FCFFFEFD22E933E8330470F802025312B9
:10002300021E58046009E4CC2481500628500902BA
:10003300025D28400302025AC0E0EB4A7044B980D3
:1000430006D0E0FB020249EF4E701CBD8008EBFFB7
:10005300EAFEE9FD80EBE98DF0A4FEE5F00200EC99
:10006300E9CDF9EAFEEBFFEF89F0A4FCE5F0CE89D8
:10007300F0A42EFFE435F0CD89F0A42DFEE435F095
:100083008067EF4E7005BD80D780C3EF8BF0A4ACC3
:10009300F0EE8BF0A42CFCE435F0F8EF8AF0A42CFE
:1000A300E5F038FCE433CB8DF0A42CFCE5F03BF811
:1000B300EE8AF0A42CFCE5F038F8E433CF89F0A401
:1000C3002CFCE5F038CF3400CE89F0A42FFFE5F007
:1000D3003EFEE433C98DF0A42EFEE5F039CD8AF05F
:1000E300A42FFFE5F03EFEE43DFD33D0E0FB5007D7
:1000F3000BBB000F02025DEC2CFCEF33FFEE33FE73
:06010300ED33FD020235A0
:1001090002025DEC5D046005E859047003020253C4
:1001190012021E580460F6EC4860F2EC7004FDFE11
:10012900FF22C860DB2481C85009C39860025006C9
:1001390002025A9850CAF582E9294B4A7005AB82E6
:1001490002024975F0007C1A7880C3EF9BEE9AEDA4
:1001590099400DC3EF9BFFEE9AFEED99FDE842F041
:10016900DC23ACF0D0E0FFD0E0FED0E0FDAB822094
:10017900E7101BEB60BAEC2CFCEF33FFEE33FEED1E
:1001890033FD020235E803F830E705C0F075F000E9
:10019900EF2FFFEE33FEED33FD40B830E7C280AA02
:1001A90075F020800E75F010800575F0087D007ED1
:1001B900007F003392D530D503120361EC33401030
:1001C900EF33FFEE33FEED33FDEC33FCD5F0ED22DA
:0E01D900E5F0247EA2D513CC92E7CDCEFF2216
:1001E700EDD2E7CD33EC3392D524814006E4FFFE10
:1001F700FDFC22FCE4CFCECDCC24E0501174FF806F
:10020700EDC3CC13CCCD13CDCE13CECF13CF04700B
:07021700F030D5DE020361A7
:10021E00E9D2E7C933E833F892D5EDD2E7CD33EC26
:07022E0033FC5002B2D5229F
:10023500EC30E7100FBF000C0EBE00080DBD00042A
:100245000BEB6014A2D5EB13FCED92E7FD2274FFD6
:10025500FCFDFEFF22E480F8A2D574FF13FC7D802F
:03026500E480EF43
:0300000002046097
:0C046000787FE4F6D8FD7581550204A7F2
:10026800BB010689828A83E0225002E722BBFE0294
:09027800E32289828A83E49322C7
:10028100BB010689828A83F0225002F722BBFE015C
:02029100F32256
:1002930075F008758200EF2FFFEE33FECD33CDCC22
:1002A30033CCC58233C5829BED9AEC99E5829840A5
:1002B3000CF582EE9BFEED9AFDEC99FC0FD5F0D682
:1002C300E4CEFBE4CDFAE4CCF9A88222B800C1B9AC
:1002D3000059BA002DEC8BF084CFCECDFCE5F0CBEA
:1002E300F97818EF2FFFEE33FEED33FDEC33FCEB23
:1002F30033FB10D703994004EB99FB0FD8E5E4F9DE
:10030300FA227818EF2FFFEE33FEED33FDEC33FCCA
:10031300C933C910D7059BE99A4007EC9BFCE99ABE
:10032300F90FD8E0E4C9FAE4CCFB2275F010EF2F03
:10033300FFEE33FEED33FDCC33CCC833C810D70703
:100343009BEC9AE899400AED9BFDEC9AFCE899F83E
:0E0353000FD5F0DAE4CDFBE4CCFAE4C8F922D1
:0E036100C3E49FFFE49EFEE49DFDE49CFC22AD
:10036F00EB9FF5F0EA9E42F0E99D42F0E89C45F0E4
:01037F00225B
:10038000E8600FEFC333FFEE33FEED33FDEC33FCDB
:03039000D8F1227F
:10046C00020777E493A3F8E493A34003F68001F228
:10047C0008DFF48029E493A3F85407240CC8C33391
:10048C00C4540F4420C8834004F456800146F6DF60
:10049C00E4800B010204081020408090064AE47EA0
:1004AC00019360BCA3FF543F30E509541FFEE49355
:1004BC00A360010ECF54C025E060A840B8E493A31C
:1004CC00FAE493A3F8E493A3C8C582C8CAC583CA47
:1004DC00F0A3C8C582C8CAC583CADFE9DEE780BEFF
:01068A00006F
:00000001FF
